{
  "contractName": "TomoLuckyBox",
  "abi": [
    {
      "anonymous": false,
      "inputs": [
        {
          "indexed": true,
          "name": "_addressSender",
          "type": "address"
        },
        {
          "indexed": false,
          "name": "_valueReturn",
          "type": "uint256"
        },
        {
          "indexed": false,
          "name": "_idLuckyBoxReturn",
          "type": "uint256"
        },
        {
          "indexed": false,
          "name": "_amountPrize",
          "type": "uint256"
        }
      ],
      "name": "LogRandomLuckyBoxSuccessed",
      "type": "event"
    },
    {
      "constant": false,
      "inputs": [
        {
          "name": "idBoxSender",
          "type": "uint256"
        }
      ],
      "name": "randomLuckyBox",
      "outputs": [],
      "payable": true,
      "stateMutability": "payable",
      "type": "function"
    }
  ],
  "bytecode": "0x60806040526000805534801561001457600080fd5b5061028e806100246000396000f3fe60806040526004361061003b576000357c0100000000000000000000000000000000000000000000000000000000900480631695a4b214610040575b600080fd5b61006c6004803603602081101561005657600080fd5b810190808035906020019092919050505061006e565b005b60006100786101ad565b9050600080905060018210158015610091575060038211155b156100a0576103e890506100c8565b600482101580156100b2575060068211155b156100c1576107d090506100c7565b610bb890505b5b828114156101475760006003340290506100e23382610217565b3373ffffffffffffffffffffffffffffffffffffffff167f0bf51d425fd2193f777372f9d2a3d2be61a3872662a10a8cf0ab66c17d30a6436001848460405180848152602001838152602001828152602001935050505060405180910390a2506101a8565b3373ffffffffffffffffffffffffffffffffffffffff167f0bf51d425fd2193f777372f9d2a3d2be61a3872662a10a8cf0ab66c17d30a643600083600060405180848152602001838152602001828152602001935050505060405180910390a25b505050565b600080600942446000546040516020018084815260200183815260200182815260200193505050506040516020818303038152906040528051906020012060019004816101f657fe5b06905060018101905060008081548092919060010191905055508091505090565b8173ffffffffffffffffffffffffffffffffffffffff166108fc829081150290604051600060405180830381858888f1935050505015801561025d573d6000803e3d6000fd5b50505056fea165627a7a7230582064aa087b4f988f5410bc82d4150e4edc87638696640246cd8a64703b78ab78110029",
  "source": "pragma solidity ^0.5.0;\n\ncontract TomoLuckyBox {\n  uint constant LUCKY_BOX_1 = 1000;\n  uint constant LUCKY_BOX_2 = 2000;\n  uint constant LUCKY_BOX_3 = 3000;\n\n  uint constant RESULT_WIN = 1;\n  uint constant RESULT_LOSE = 0;\n\n  uint nonce = 0;\n\n  event LogRandomLuckyBoxSuccessed(address indexed _addressSender, uint _valueReturn, uint _idLuckyBoxReturn,uint _amountPrize);\n\n  function randomLuckyBox(uint idBoxSender)\n    external\n    payable\n  {\n    uint randomNumber = random();\n    uint idLuckyBox = 0;\n    if(randomNumber >= 1 && randomNumber <= 3)\n      idLuckyBox = LUCKY_BOX_1;\n    else\n      if(randomNumber >= 4 && randomNumber <= 6)\n        idLuckyBox = LUCKY_BOX_2;\n      else\n        idLuckyBox = LUCKY_BOX_3;\n    if(idLuckyBox == idBoxSender) {\n      uint amountPrize = msg.value * 3;\n      sendPayment(msg.sender, amountPrize);\n      emit LogRandomLuckyBoxSuccessed(msg.sender, RESULT_WIN, idLuckyBox, amountPrize);\n    }\n    else {\n      emit LogRandomLuckyBoxSuccessed(msg.sender, RESULT_LOSE, idLuckyBox, 0);\n    }\n  }\n\n  function random() internal returns (uint) {\n    uint randomNumber = uint(keccak256(abi.encodePacked(block.timestamp, block.difficulty, nonce))) % 9;\n    randomNumber = randomNumber + 1;\n    nonce++;\n    return randomNumber;\n  }\n\n  function sendPayment(address payable _receiverAdress, uint _amount) private {\n      _receiverAdress.transfer(_amount);\n  }\n\n}\n",
  "sourcePath": "/Users/frogdev/Documents/Freelancer/tomoluckybox-smartcontract/contracts/TomoLuckyBox.sol",
  "compiler": {
    "name": "solc",
    "version": "0.5.8+commit.23d335f2.Emscripten.clang"
  },
  "schemaVersion": "3.0.11",
  "updatedAt": "2019-07-11T10:46:05.426Z",
  "devdoc": {
    "methods": {}
  },
  "userdoc": {
    "methods": {}
  }
}