{
  "contractName": "TomoLuckyBox",
  "abi": [
    {
      "anonymous": false,
      "inputs": [
        {
          "indexed": true,
          "name": "_addressSender",
          "type": "address"
        },
        {
          "indexed": false,
          "name": "_valueReturn",
          "type": "uint256"
        },
        {
          "indexed": false,
          "name": "_idLuckyBoxReturn",
          "type": "uint256"
        }
      ],
      "name": "LogRandomLuckyBoxSuccessed",
      "type": "event"
    },
    {
      "constant": false,
      "inputs": [
        {
          "name": "idBoxSender",
          "type": "uint256"
        }
      ],
      "name": "randomLuckyBox",
      "outputs": [],
      "payable": true,
      "stateMutability": "payable",
      "type": "function"
    }
  ],
  "bytecode": "0x608060405234801561001057600080fd5b506101b9806100206000396000f3fe60806040526004361061003b576000357c0100000000000000000000000000000000000000000000000000000000900480631695a4b214610040575b600080fd5b61006c6004803603602081101561005657600080fd5b810190808035906020019092919050505061006e565b005b60006103e89050818114156100e65761008a3360033402610142565b3373ffffffffffffffffffffffffffffffffffffffff167f9a2af7981edad7073d18b808ebd304f8579ceeb11a75c31bdbc924acd0102fb9600183604051808381526020018281526020019250505060405180910390a261013e565b3373ffffffffffffffffffffffffffffffffffffffff167f9a2af7981edad7073d18b808ebd304f8579ceeb11a75c31bdbc924acd0102fb9600083604051808381526020018281526020019250505060405180910390a25b5050565b8173ffffffffffffffffffffffffffffffffffffffff166108fc829081150290604051600060405180830381858888f19350505050158015610188573d6000803e3d6000fd5b50505056fea165627a7a7230582087fad6a8ee8e6bdf98b25d8b4065511b3c06b87e27e47ba48760872a9e6e48120029",
  "source": "pragma solidity ^0.5.0;\n\ncontract TomoLuckyBox {\n  uint constant LUCKY_BOX_1 = 1000;\n  uint constant LUCKY_BOX_2 = 2000;\n  uint constant LUCKY_BOX_3 = 3000;\n\n  uint constant RESULT_WIN = 1;\n  uint constant RESULT_LOSE = 0;\n\n  event LogRandomLuckyBoxSuccessed(address indexed _addressSender, uint _valueReturn, uint _idLuckyBoxReturn);\n\n  function randomLuckyBox(uint idBoxSender)\n    external\n    payable\n  {\n    uint idLuckyBox = LUCKY_BOX_1;\n    if(idLuckyBox == idBoxSender) {\n      sendPayment(msg.sender, msg.value * 3);\n      emit LogRandomLuckyBoxSuccessed(msg.sender, RESULT_WIN, idLuckyBox);\n    }\n    else {\n      emit LogRandomLuckyBoxSuccessed(msg.sender, RESULT_LOSE, idLuckyBox);\n    }\n  }\n\n  function sendPayment(address payable _receiverAdress, uint _amount) private {\n      _receiverAdress.transfer(_amount);\n  }\n}\n",
  "sourcePath": "/Users/frogdev/Documents/Freelancer/tomoluckybox-smartcontract/contracts/TomoLuckyBox.sol",
  "compiler": {
    "name": "solc",
    "version": "0.5.8+commit.23d335f2.Emscripten.clang"
  },
  "schemaVersion": "3.0.11",
  "updatedAt": "2019-07-10T16:03:37.761Z",
  "devdoc": {
    "methods": {}
  },
  "userdoc": {
    "methods": {}
  }
}